{
	"data": {
		"bytecode": {
			"linkReferences": {},
			"object": "6080604052348015600e575f80fd5b506112d18061001c5f395ff3fe608060405234801561000f575f80fd5b506004361061012a575f3560e01c80638fda356d116100ab578063bca353be1161006f578063bca353be1461031f578063c19d93fb14610329578063cb6a33f814610347578063e0819c9a14610377578063ef3763d7146103955761012a565b80638fda356d1461028e5780639e7a13ad14610298578063a621d15e146102c9578063a7e1a364146102e7578063b6339418146103035761012a565b80633a32b549116100f25780633a32b549146101e85780636f760f41146102065780637b2f685d146102225780638701f8ca146102405780638bab8dd51461025e5761012a565b80630c8c38c91461012e5780630cd2636e1461014c57806322f3e2d41461016a57806329cd1d961461018857806336428c45146101b8575b5f80fd5b6101366103b3565b604051610143919061098e565b60405180910390f35b6101546103bf565b604051610161919061098e565b60405180910390f35b6101726103fb565b60405161017f91906109c1565b60405180910390f35b6101a2600480360381019061019d9190610a15565b610436565b6040516101af919061098e565b60405180910390f35b6101d260048036038101906101cd9190610aa1565b610456565b6040516101df9190610b5c565b60405180910390f35b6101f06104a4565b6040516101fd9190610b5c565b60405180910390f35b610220600480360381019061021b9190610ca4565b6104e1565b005b61022a61059e565b604051610237919061098e565b60405180910390f35b6102486105aa565b6040516102559190610b5c565b60405180910390f35b61027860048036038101906102739190610cfe565b6105b9565b604051610285919061098e565b60405180910390f35b6102966105e6565b005b6102b260048036038101906102ad9190610a15565b610656565b6040516102c0929190610d45565b60405180910390f35b6102d161070b565b6040516102de919061098e565b60405180910390f35b61030160048036038101906102fc9190610a15565b610713565b005b61031d60048036038101906103189190610a15565b610773565b005b6103276107f2565b005b610331610863565b60405161033e9190610de6565b60405180910390f35b610361600480360381019061035c9190610a15565b610875565b60405161036e91906109c1565b60405180910390f35b61037f610881565b60405161038c9190610b5c565b60405180910390f35b61039d6108f8565b6040516103aa919061098e565b60405180910390f35b5f600380549050905090565b5f805f90505f600190505b5f5481116103f35780826103de9190610e2c565b915080806103eb90610e5f565b9150506103ca565b508091505090565b5f80600181111561040f5761040e610d73565b5b60045f9054906101000a900460ff1660018111156104305761042f610d73565b5b14905090565b60028181548110610445575f80fd5b905f5260205f20015f915090505481565b606082828080601f0160208091040260200160405190810160405280939291908181526020018383808284375f81840152601f19601f82011690508083019250505050505050905092915050565b60606040518060400160405280601c81526020017f5468697320697320616e2065787465726e616c2066756e6374696f6e00000000815250905090565b6003604051806040016040528084815260200183815250908060018154018082558091505060019003905f5260205f2090600202015f909190919091505f820151815f01908161053191906110a0565b506020820151816001015550508060018360405161054f91906111a9565b9081526020016040518091039020819055507f038689efcc6afee3cd9a9149881ac988a4baf9420f51737c9d3d832fe2d5b5398282604051610592929190610d45565b60405180910390a15050565b5f600280549050905090565b60606105b4610939565b905090565b6001818051602081018201805184825260208301602085012081835280955050505050505f915090505481565b5f60045f6101000a81548160ff0219169083600181111561060a57610609610d73565b5b02179055507fab540c1b3defd38d975e65aa0e06eeee132a55dd082be87b73f505ab57bed48c60045f9054906101000a900460ff1660405161064c9190610de6565b60405180910390a1565b60038181548110610665575f80fd5b905f5260205f2090600202015f91509050805f01805461068490610ed3565b80601f01602080910402602001604051908101604052809291908181526020018280546106b090610ed3565b80156106fb5780601f106106d2576101008083540402835291602001916106fb565b820191905f5260205f20905b8154815290600101906020018083116106de57829003601f168201915b5050505050908060010154905082565b5f8054905090565b600281908060018154018082558091505060019003905f5260205f20015f90919091909150557f863998ab206170ca379aa4dc8a1b8eaf9944abe3f6f7d4571b42db890169a7f381604051610768919061098e565b60405180910390a150565b5f80549050815f819055507f3564ffb2fd8f93d7b0e9d1173ffdff5ee9775d860bfe82eaca0d0dbe07c8b634826040516107ad919061098e565b60405180910390a17f32853224b52c8c1c4c85ba01615b18e43506c8be20fcbb909a81ca220b3ee71f81836040516107e69291906111bf565b60405180910390a15050565b600160045f6101000a81548160ff0219169083600181111561081757610816610d73565b5b02179055507fab540c1b3defd38d975e65aa0e06eeee132a55dd082be87b73f505ab57bed48c60045f9054906101000a900460ff166040516108599190610de6565b60405180910390a1565b60045f9054906101000a900460ff1681565b5f815f54119050919050565b60603073ffffffffffffffffffffffffffffffffffffffff16633a32b5496040518163ffffffff1660e01b81526004015f60405180830381865afa1580156108cb573d5f803e3d5ffd5b505050506040513d5f823e3d601f19601f820116820180604052508101906108f39190611254565b905090565b5f805f90505f805490505f600190505b81811161093057808361091b9190610e2c565b9250808061092890610e5f565b915050610908565b50819250505090565b60606040518060400160405280601c81526020017f5468697320697320616e20696e7465726e616c2066756e6374696f6e00000000815250905090565b5f819050919050565b61098881610976565b82525050565b5f6020820190506109a15f83018461097f565b92915050565b5f8115159050919050565b6109bb816109a7565b82525050565b5f6020820190506109d45f8301846109b2565b92915050565b5f604051905090565b5f80fd5b5f80fd5b6109f481610976565b81146109fe575f80fd5b50565b5f81359050610a0f816109eb565b92915050565b5f60208284031215610a2a57610a296109e3565b5b5f610a3784828501610a01565b91505092915050565b5f80fd5b5f80fd5b5f80fd5b5f8083601f840112610a6157610a60610a40565b5b8235905067ffffffffffffffff811115610a7e57610a7d610a44565b5b602083019150836001820283011115610a9a57610a99610a48565b5b9250929050565b5f8060208385031215610ab757610ab66109e3565b5b5f83013567ffffffffffffffff811115610ad457610ad36109e7565b5b610ae085828601610a4c565b92509250509250929050565b5f81519050919050565b5f82825260208201905092915050565b8281835e5f83830152505050565b5f601f19601f8301169050919050565b5f610b2e82610aec565b610b388185610af6565b9350610b48818560208601610b06565b610b5181610b14565b840191505092915050565b5f6020820190508181035f830152610b748184610b24565b905092915050565b5f80fd5b7f4e487b71000000000000000000000000000000000000000000000000000000005f52604160045260245ffd5b610bb682610b14565b810181811067ffffffffffffffff82111715610bd557610bd4610b80565b5b80604052505050565b5f610be76109da565b9050610bf38282610bad565b919050565b5f67ffffffffffffffff821115610c1257610c11610b80565b5b610c1b82610b14565b9050602081019050919050565b828183375f83830152505050565b5f610c48610c4384610bf8565b610bde565b905082815260208101848484011115610c6457610c63610b7c565b5b610c6f848285610c28565b509392505050565b5f82601f830112610c8b57610c8a610a40565b5b8135610c9b848260208601610c36565b91505092915050565b5f8060408385031215610cba57610cb96109e3565b5b5f83013567ffffffffffffffff811115610cd757610cd66109e7565b5b610ce385828601610c77565b9250506020610cf485828601610a01565b9150509250929050565b5f60208284031215610d1357610d126109e3565b5b5f82013567ffffffffffffffff811115610d3057610d2f6109e7565b5b610d3c84828501610c77565b91505092915050565b5f6040820190508181035f830152610d5d8185610b24565b9050610d6c602083018461097f565b9392505050565b7f4e487b71000000000000000000000000000000000000000000000000000000005f52602160045260245ffd5b60028110610db157610db0610d73565b5b50565b5f819050610dc182610da0565b919050565b5f610dd082610db4565b9050919050565b610de081610dc6565b82525050565b5f602082019050610df95f830184610dd7565b92915050565b7f4e487b71000000000000000000000000000000000000000000000000000000005f52601160045260245ffd5b5f610e3682610976565b9150610e4183610976565b9250828201905080821115610e5957610e58610dff565b5b92915050565b5f610e6982610976565b91507fffffffffffffffffffffffffffffffffffffffffffffffffffffffffffffffff8203610e9b57610e9a610dff565b5b600182019050919050565b7f4e487b71000000000000000000000000000000000000000000000000000000005f52602260045260245ffd5b5f6002820490506001821680610eea57607f821691505b602082108103610efd57610efc610ea6565b5b50919050565b5f819050815f5260205f209050919050565b5f6020601f8301049050919050565b5f82821b905092915050565b5f60088302610f5f7fffffffffffffffffffffffffffffffffffffffffffffffffffffffffffffffff82610f24565b610f698683610f24565b95508019841693508086168417925050509392505050565b5f819050919050565b5f610fa4610f9f610f9a84610976565b610f81565b610976565b9050919050565b5f819050919050565b610fbd83610f8a565b610fd1610fc982610fab565b848454610f30565b825550505050565b5f90565b610fe5610fd9565b610ff0818484610fb4565b505050565b5b81811015611013576110085f82610fdd565b600181019050610ff6565b5050565b601f8211156110585761102981610f03565b61103284610f15565b81016020851015611041578190505b61105561104d85610f15565b830182610ff5565b50505b505050565b5f82821c905092915050565b5f6110785f198460080261105d565b1980831691505092915050565b5f6110908383611069565b9150826002028217905092915050565b6110a982610aec565b67ffffffffffffffff8111156110c2576110c1610b80565b5b6110cc8254610ed3565b6110d7828285611017565b5f60209050601f831160018114611108575f84156110f6578287015190505b6111008582611085565b865550611167565b601f19841661111686610f03565b5f5b8281101561113d57848901518255600182019150602085019450602081019050611118565b8683101561115a5784890151611156601f891682611069565b8355505b6001600288020188555050505b505050505050565b5f81905092915050565b5f61118382610aec565b61118d818561116f565b935061119d818560208601610b06565b80840191505092915050565b5f6111b48284611179565b915081905092915050565b5f6040820190506111d25f83018561097f565b6111df602083018461097f565b9392505050565b5f6111f86111f384610bf8565b610bde565b90508281526020810184848401111561121457611213610b7c565b5b61121f848285610b06565b509392505050565b5f82601f83011261123b5761123a610a40565b5b815161124b8482602086016111e6565b91505092915050565b5f60208284031215611269576112686109e3565b5b5f82015167ffffffffffffffff811115611286576112856109e7565b5b61129284828501611227565b9150509291505056fea264697066735822122072cd7bc893ab4ecdbd3eea8a6ddc117779db7647e8227ed182c6110493b62ceb64736f6c634300081a0033",
			"opcodes": "PUSH1 0x80 PUSH1 0x40 MSTORE CALLVALUE DUP1 ISZERO PUSH1 0xE JUMPI PUSH0 DUP1 REVERT JUMPDEST POP PUSH2 0x12D1 DUP1 PUSH2 0x1C PUSH0 CODECOPY PUSH0 RETURN INVALID PUSH1 0x80 PUSH1 0x40 MSTORE CALLVALUE DUP1 ISZERO PUSH2 0xF JUMPI PUSH0 DUP1 REVERT JUMPDEST POP PUSH1 0x4 CALLDATASIZE LT PUSH2 0x12A JUMPI PUSH0 CALLDATALOAD PUSH1 0xE0 SHR DUP1 PUSH4 0x8FDA356D GT PUSH2 0xAB JUMPI DUP1 PUSH4 0xBCA353BE GT PUSH2 0x6F JUMPI DUP1 PUSH4 0xBCA353BE EQ PUSH2 0x31F JUMPI DUP1 PUSH4 0xC19D93FB EQ PUSH2 0x329 JUMPI DUP1 PUSH4 0xCB6A33F8 EQ PUSH2 0x347 JUMPI DUP1 PUSH4 0xE0819C9A EQ PUSH2 0x377 JUMPI DUP1 PUSH4 0xEF3763D7 EQ PUSH2 0x395 JUMPI PUSH2 0x12A JUMP JUMPDEST DUP1 PUSH4 0x8FDA356D EQ PUSH2 0x28E JUMPI DUP1 PUSH4 0x9E7A13AD EQ PUSH2 0x298 JUMPI DUP1 PUSH4 0xA621D15E EQ PUSH2 0x2C9 JUMPI DUP1 PUSH4 0xA7E1A364 EQ PUSH2 0x2E7 JUMPI DUP1 PUSH4 0xB6339418 EQ PUSH2 0x303 JUMPI PUSH2 0x12A JUMP JUMPDEST DUP1 PUSH4 0x3A32B549 GT PUSH2 0xF2 JUMPI DUP1 PUSH4 0x3A32B549 EQ PUSH2 0x1E8 JUMPI DUP1 PUSH4 0x6F760F41 EQ PUSH2 0x206 JUMPI DUP1 PUSH4 0x7B2F685D EQ PUSH2 0x222 JUMPI DUP1 PUSH4 0x8701F8CA EQ PUSH2 0x240 JUMPI DUP1 PUSH4 0x8BAB8DD5 EQ PUSH2 0x25E JUMPI PUSH2 0x12A JUMP JUMPDEST DUP1 PUSH4 0xC8C38C9 EQ PUSH2 0x12E JUMPI DUP1 PUSH4 0xCD2636E EQ PUSH2 0x14C JUMPI DUP1 PUSH4 0x22F3E2D4 EQ PUSH2 0x16A JUMPI DUP1 PUSH4 0x29CD1D96 EQ PUSH2 0x188 JUMPI DUP1 PUSH4 0x36428C45 EQ PUSH2 0x1B8 JUMPI JUMPDEST PUSH0 DUP1 REVERT JUMPDEST PUSH2 0x136 PUSH2 0x3B3 JUMP JUMPDEST PUSH1 0x40 MLOAD PUSH2 0x143 SWAP2 SWAP1 PUSH2 0x98E JUMP JUMPDEST PUSH1 0x40 MLOAD DUP1 SWAP2 SUB SWAP1 RETURN JUMPDEST PUSH2 0x154 PUSH2 0x3BF JUMP JUMPDEST PUSH1 0x40 MLOAD PUSH2 0x161 SWAP2 SWAP1 PUSH2 0x98E JUMP JUMPDEST PUSH1 0x40 MLOAD DUP1 SWAP2 SUB SWAP1 RETURN JUMPDEST PUSH2 0x172 PUSH2 0x3FB JUMP JUMPDEST PUSH1 0x40 MLOAD PUSH2 0x17F SWAP2 SWAP1 PUSH2 0x9C1 JUMP JUMPDEST PUSH1 0x40 MLOAD DUP1 SWAP2 SUB SWAP1 RETURN JUMPDEST PUSH2 0x1A2 PUSH1 0x4 DUP1 CALLDATASIZE SUB DUP2 ADD SWAP1 PUSH2 0x19D SWAP2 SWAP1 PUSH2 0xA15 JUMP JUMPDEST PUSH2 0x436 JUMP JUMPDEST PUSH1 0x40 MLOAD PUSH2 0x1AF SWAP2 SWAP1 PUSH2 0x98E JUMP JUMPDEST PUSH1 0x40 MLOAD DUP1 SWAP2 SUB SWAP1 RETURN JUMPDEST PUSH2 0x1D2 PUSH1 0x4 DUP1 CALLDATASIZE SUB DUP2 ADD SWAP1 PUSH2 0x1CD SWAP2 SWAP1 PUSH2 0xAA1 JUMP JUMPDEST PUSH2 0x456 JUMP JUMPDEST PUSH1 0x40 MLOAD PUSH2 0x1DF SWAP2 SWAP1 PUSH2 0xB5C JUMP JUMPDEST PUSH1 0x40 MLOAD DUP1 SWAP2 SUB SWAP1 RETURN JUMPDEST PUSH2 0x1F0 PUSH2 0x4A4 JUMP JUMPDEST PUSH1 0x40 MLOAD PUSH2 0x1FD SWAP2 SWAP1 PUSH2 0xB5C JUMP JUMPDEST PUSH1 0x40 MLOAD DUP1 SWAP2 SUB SWAP1 RETURN JUMPDEST PUSH2 0x220 PUSH1 0x4 DUP1 CALLDATASIZE SUB DUP2 ADD SWAP1 PUSH2 0x21B SWAP2 SWAP1 PUSH2 0xCA4 JUMP JUMPDEST PUSH2 0x4E1 JUMP JUMPDEST STOP JUMPDEST PUSH2 0x22A PUSH2 0x59E JUMP JUMPDEST PUSH1 0x40 MLOAD PUSH2 0x237 SWAP2 SWAP1 PUSH2 0x98E JUMP JUMPDEST PUSH1 0x40 MLOAD DUP1 SWAP2 SUB SWAP1 RETURN JUMPDEST PUSH2 0x248 PUSH2 0x5AA JUMP JUMPDEST PUSH1 0x40 MLOAD PUSH2 0x255 SWAP2 SWAP1 PUSH2 0xB5C JUMP JUMPDEST PUSH1 0x40 MLOAD DUP1 SWAP2 SUB SWAP1 RETURN JUMPDEST PUSH2 0x278 PUSH1 0x4 DUP1 CALLDATASIZE SUB DUP2 ADD SWAP1 PUSH2 0x273 SWAP2 SWAP1 PUSH2 0xCFE JUMP JUMPDEST PUSH2 0x5B9 JUMP JUMPDEST PUSH1 0x40 MLOAD PUSH2 0x285 SWAP2 SWAP1 PUSH2 0x98E JUMP JUMPDEST PUSH1 0x40 MLOAD DUP1 SWAP2 SUB SWAP1 RETURN JUMPDEST PUSH2 0x296 PUSH2 0x5E6 JUMP JUMPDEST STOP JUMPDEST PUSH2 0x2B2 PUSH1 0x4 DUP1 CALLDATASIZE SUB DUP2 ADD SWAP1 PUSH2 0x2AD SWAP2 SWAP1 PUSH2 0xA15 JUMP JUMPDEST PUSH2 0x656 JUMP JUMPDEST PUSH1 0x40 MLOAD PUSH2 0x2C0 SWAP3 SWAP2 SWAP1 PUSH2 0xD45 JUMP JUMPDEST PUSH1 0x40 MLOAD DUP1 SWAP2 SUB SWAP1 RETURN JUMPDEST PUSH2 0x2D1 PUSH2 0x70B JUMP JUMPDEST PUSH1 0x40 MLOAD PUSH2 0x2DE SWAP2 SWAP1 PUSH2 0x98E JUMP JUMPDEST PUSH1 0x40 MLOAD DUP1 SWAP2 SUB SWAP1 RETURN JUMPDEST PUSH2 0x301 PUSH1 0x4 DUP1 CALLDATASIZE SUB DUP2 ADD SWAP1 PUSH2 0x2FC SWAP2 SWAP1 PUSH2 0xA15 JUMP JUMPDEST PUSH2 0x713 JUMP JUMPDEST STOP JUMPDEST PUSH2 0x31D PUSH1 0x4 DUP1 CALLDATASIZE SUB DUP2 ADD SWAP1 PUSH2 0x318 SWAP2 SWAP1 PUSH2 0xA15 JUMP JUMPDEST PUSH2 0x773 JUMP JUMPDEST STOP JUMPDEST PUSH2 0x327 PUSH2 0x7F2 JUMP JUMPDEST STOP JUMPDEST PUSH2 0x331 PUSH2 0x863 JUMP JUMPDEST PUSH1 0x40 MLOAD PUSH2 0x33E SWAP2 SWAP1 PUSH2 0xDE6 JUMP JUMPDEST PUSH1 0x40 MLOAD DUP1 SWAP2 SUB SWAP1 RETURN JUMPDEST PUSH2 0x361 PUSH1 0x4 DUP1 CALLDATASIZE SUB DUP2 ADD SWAP1 PUSH2 0x35C SWAP2 SWAP1 PUSH2 0xA15 JUMP JUMPDEST PUSH2 0x875 JUMP JUMPDEST PUSH1 0x40 MLOAD PUSH2 0x36E SWAP2 SWAP1 PUSH2 0x9C1 JUMP JUMPDEST PUSH1 0x40 MLOAD DUP1 SWAP2 SUB SWAP1 RETURN JUMPDEST PUSH2 0x37F PUSH2 0x881 JUMP JUMPDEST PUSH1 0x40 MLOAD PUSH2 0x38C SWAP2 SWAP1 PUSH2 0xB5C JUMP JUMPDEST PUSH1 0x40 MLOAD DUP1 SWAP2 SUB SWAP1 RETURN JUMPDEST PUSH2 0x39D PUSH2 0x8F8 JUMP JUMPDEST PUSH1 0x40 MLOAD PUSH2 0x3AA SWAP2 SWAP1 PUSH2 0x98E JUMP JUMPDEST PUSH1 0x40 MLOAD DUP1 SWAP2 SUB SWAP1 RETURN JUMPDEST PUSH0 PUSH1 0x3 DUP1 SLOAD SWAP1 POP SWAP1 POP SWAP1 JUMP JUMPDEST PUSH0 DUP1 PUSH0 SWAP1 POP PUSH0 PUSH1 0x1 SWAP1 POP JUMPDEST PUSH0 SLOAD DUP2 GT PUSH2 0x3F3 JUMPI DUP1 DUP3 PUSH2 0x3DE SWAP2 SWAP1 PUSH2 0xE2C JUMP JUMPDEST SWAP2 POP DUP1 DUP1 PUSH2 0x3EB SWAP1 PUSH2 0xE5F JUMP JUMPDEST SWAP2 POP POP PUSH2 0x3CA JUMP JUMPDEST POP DUP1 SWAP2 POP POP SWAP1 JUMP JUMPDEST PUSH0 DUP1 PUSH1 0x1 DUP2 GT ISZERO PUSH2 0x40F JUMPI PUSH2 0x40E PUSH2 0xD73 JUMP JUMPDEST JUMPDEST PUSH1 0x4 PUSH0 SWAP1 SLOAD SWAP1 PUSH2 0x100 EXP SWAP1 DIV PUSH1 0xFF AND PUSH1 0x1 DUP2 GT ISZERO PUSH2 0x430 JUMPI PUSH2 0x42F PUSH2 0xD73 JUMP JUMPDEST JUMPDEST EQ SWAP1 POP SWAP1 JUMP JUMPDEST PUSH1 0x2 DUP2 DUP2 SLOAD DUP2 LT PUSH2 0x445 JUMPI PUSH0 DUP1 REVERT JUMPDEST SWAP1 PUSH0 MSTORE PUSH1 0x20 PUSH0 KECCAK256 ADD PUSH0 SWAP2 POP SWAP1 POP SLOAD DUP2 JUMP JUMPDEST PUSH1 0x60 DUP3 DUP3 DUP1 DUP1 PUSH1 0x1F ADD PUSH1 0x20 DUP1 SWAP2 DIV MUL PUSH1 0x20 ADD PUSH1 0x40 MLOAD SWAP1 DUP2 ADD PUSH1 0x40 MSTORE DUP1 SWAP4 SWAP3 SWAP2 SWAP1 DUP2 DUP2 MSTORE PUSH1 0x20 ADD DUP4 DUP4 DUP1 DUP3 DUP5 CALLDATACOPY PUSH0 DUP2 DUP5 ADD MSTORE PUSH1 0x1F NOT PUSH1 0x1F DUP3 ADD AND SWAP1 POP DUP1 DUP4 ADD SWAP3 POP POP POP POP POP POP POP SWAP1 POP SWAP3 SWAP2 POP POP JUMP JUMPDEST PUSH1 0x60 PUSH1 0x40 MLOAD DUP1 PUSH1 0x40 ADD PUSH1 0x40 MSTORE DUP1 PUSH1 0x1C DUP2 MSTORE PUSH1 0x20 ADD PUSH32 0x5468697320697320616E2065787465726E616C2066756E6374696F6E00000000 DUP2 MSTORE POP SWAP1 POP SWAP1 JUMP JUMPDEST PUSH1 0x3 PUSH1 0x40 MLOAD DUP1 PUSH1 0x40 ADD PUSH1 0x40 MSTORE DUP1 DUP5 DUP2 MSTORE PUSH1 0x20 ADD DUP4 DUP2 MSTORE POP SWAP1 DUP1 PUSH1 0x1 DUP2 SLOAD ADD DUP1 DUP3 SSTORE DUP1 SWAP2 POP POP PUSH1 0x1 SWAP1 SUB SWAP1 PUSH0 MSTORE PUSH1 0x20 PUSH0 KECCAK256 SWAP1 PUSH1 0x2 MUL ADD PUSH0 SWAP1 SWAP2 SWAP1 SWAP2 SWAP1 SWAP2 POP PUSH0 DUP3 ADD MLOAD DUP2 PUSH0 ADD SWAP1 DUP2 PUSH2 0x531 SWAP2 SWAP1 PUSH2 0x10A0 JUMP JUMPDEST POP PUSH1 0x20 DUP3 ADD MLOAD DUP2 PUSH1 0x1 ADD SSTORE POP POP DUP1 PUSH1 0x1 DUP4 PUSH1 0x40 MLOAD PUSH2 0x54F SWAP2 SWAP1 PUSH2 0x11A9 JUMP JUMPDEST SWAP1 DUP2 MSTORE PUSH1 0x20 ADD PUSH1 0x40 MLOAD DUP1 SWAP2 SUB SWAP1 KECCAK256 DUP2 SWAP1 SSTORE POP PUSH32 0x38689EFCC6AFEE3CD9A9149881AC988A4BAF9420F51737C9D3D832FE2D5B539 DUP3 DUP3 PUSH1 0x40 MLOAD PUSH2 0x592 SWAP3 SWAP2 SWAP1 PUSH2 0xD45 JUMP JUMPDEST PUSH1 0x40 MLOAD DUP1 SWAP2 SUB SWAP1 LOG1 POP POP JUMP JUMPDEST PUSH0 PUSH1 0x2 DUP1 SLOAD SWAP1 POP SWAP1 POP SWAP1 JUMP JUMPDEST PUSH1 0x60 PUSH2 0x5B4 PUSH2 0x939 JUMP JUMPDEST SWAP1 POP SWAP1 JUMP JUMPDEST PUSH1 0x1 DUP2 DUP1 MLOAD PUSH1 0x20 DUP2 ADD DUP3 ADD DUP1 MLOAD DUP5 DUP3 MSTORE PUSH1 0x20 DUP4 ADD PUSH1 0x20 DUP6 ADD KECCAK256 DUP2 DUP4 MSTORE DUP1 SWAP6 POP POP POP POP POP POP PUSH0 SWAP2 POP SWAP1 POP SLOAD DUP2 JUMP JUMPDEST PUSH0 PUSH1 0x4 PUSH0 PUSH2 0x100 EXP DUP2 SLOAD DUP2 PUSH1 0xFF MUL NOT AND SWAP1 DUP4 PUSH1 0x1 DUP2 GT ISZERO PUSH2 0x60A JUMPI PUSH2 0x609 PUSH2 0xD73 JUMP JUMPDEST JUMPDEST MUL OR SWAP1 SSTORE POP PUSH32 0xAB540C1B3DEFD38D975E65AA0E06EEEE132A55DD082BE87B73F505AB57BED48C PUSH1 0x4 PUSH0 SWAP1 SLOAD SWAP1 PUSH2 0x100 EXP SWAP1 DIV PUSH1 0xFF AND PUSH1 0x40 MLOAD PUSH2 0x64C SWAP2 SWAP1 PUSH2 0xDE6 JUMP JUMPDEST PUSH1 0x40 MLOAD DUP1 SWAP2 SUB SWAP1 LOG1 JUMP JUMPDEST PUSH1 0x3 DUP2 DUP2 SLOAD DUP2 LT PUSH2 0x665 JUMPI PUSH0 DUP1 REVERT JUMPDEST SWAP1 PUSH0 MSTORE PUSH1 0x20 PUSH0 KECCAK256 SWAP1 PUSH1 0x2 MUL ADD PUSH0 SWAP2 POP SWAP1 POP DUP1 PUSH0 ADD DUP1 SLOAD PUSH2 0x684 SWAP1 PUSH2 0xED3 JUMP JUMPDEST DUP1 PUSH1 0x1F ADD PUSH1 0x20 DUP1 SWAP2 DIV MUL PUSH1 0x20 ADD PUSH1 0x40 MLOAD SWAP1 DUP2 ADD PUSH1 0x40 MSTORE DUP1 SWAP3 SWAP2 SWAP1 DUP2 DUP2 MSTORE PUSH1 0x20 ADD DUP3 DUP1 SLOAD PUSH2 0x6B0 SWAP1 PUSH2 0xED3 JUMP JUMPDEST DUP1 ISZERO PUSH2 0x6FB JUMPI DUP1 PUSH1 0x1F LT PUSH2 0x6D2 JUMPI PUSH2 0x100 DUP1 DUP4 SLOAD DIV MUL DUP4 MSTORE SWAP2 PUSH1 0x20 ADD SWAP2 PUSH2 0x6FB JUMP JUMPDEST DUP3 ADD SWAP2 SWAP1 PUSH0 MSTORE PUSH1 0x20 PUSH0 KECCAK256 SWAP1 JUMPDEST DUP2 SLOAD DUP2 MSTORE SWAP1 PUSH1 0x1 ADD SWAP1 PUSH1 0x20 ADD DUP1 DUP4 GT PUSH2 0x6DE JUMPI DUP3 SWAP1 SUB PUSH1 0x1F AND DUP3 ADD SWAP2 JUMPDEST POP POP POP POP POP SWAP1 DUP1 PUSH1 0x1 ADD SLOAD SWAP1 POP DUP3 JUMP JUMPDEST PUSH0 DUP1 SLOAD SWAP1 POP SWAP1 JUMP JUMPDEST PUSH1 0x2 DUP2 SWAP1 DUP1 PUSH1 0x1 DUP2 SLOAD ADD DUP1 DUP3 SSTORE DUP1 SWAP2 POP POP PUSH1 0x1 SWAP1 SUB SWAP1 PUSH0 MSTORE PUSH1 0x20 PUSH0 KECCAK256 ADD PUSH0 SWAP1 SWAP2 SWAP1 SWAP2 SWAP1 SWAP2 POP SSTORE PUSH32 0x863998AB206170CA379AA4DC8A1B8EAF9944ABE3F6F7D4571B42DB890169A7F3 DUP2 PUSH1 0x40 MLOAD PUSH2 0x768 SWAP2 SWAP1 PUSH2 0x98E JUMP JUMPDEST PUSH1 0x40 MLOAD DUP1 SWAP2 SUB SWAP1 LOG1 POP JUMP JUMPDEST PUSH0 DUP1 SLOAD SWAP1 POP DUP2 PUSH0 DUP2 SWAP1 SSTORE POP PUSH32 0x3564FFB2FD8F93D7B0E9D1173FFDFF5EE9775D860BFE82EACA0D0DBE07C8B634 DUP3 PUSH1 0x40 MLOAD PUSH2 0x7AD SWAP2 SWAP1 PUSH2 0x98E JUMP JUMPDEST PUSH1 0x40 MLOAD DUP1 SWAP2 SUB SWAP1 LOG1 PUSH32 0x32853224B52C8C1C4C85BA01615B18E43506C8BE20FCBB909A81CA220B3EE71F DUP2 DUP4 PUSH1 0x40 MLOAD PUSH2 0x7E6 SWAP3 SWAP2 SWAP1 PUSH2 0x11BF JUMP JUMPDEST PUSH1 0x40 MLOAD DUP1 SWAP2 SUB SWAP1 LOG1 POP POP JUMP JUMPDEST PUSH1 0x1 PUSH1 0x4 PUSH0 PUSH2 0x100 EXP DUP2 SLOAD DUP2 PUSH1 0xFF MUL NOT AND SWAP1 DUP4 PUSH1 0x1 DUP2 GT ISZERO PUSH2 0x817 JUMPI PUSH2 0x816 PUSH2 0xD73 JUMP JUMPDEST JUMPDEST MUL OR SWAP1 SSTORE POP PUSH32 0xAB540C1B3DEFD38D975E65AA0E06EEEE132A55DD082BE87B73F505AB57BED48C PUSH1 0x4 PUSH0 SWAP1 SLOAD SWAP1 PUSH2 0x100 EXP SWAP1 DIV PUSH1 0xFF AND PUSH1 0x40 MLOAD PUSH2 0x859 SWAP2 SWAP1 PUSH2 0xDE6 JUMP JUMPDEST PUSH1 0x40 MLOAD DUP1 SWAP2 SUB SWAP1 LOG1 JUMP JUMPDEST PUSH1 0x4 PUSH0 SWAP1 SLOAD SWAP1 PUSH2 0x100 EXP SWAP1 DIV PUSH1 0xFF AND DUP2 JUMP JUMPDEST PUSH0 DUP2 PUSH0 SLOAD GT SWAP1 POP SWAP2 SWAP1 POP JUMP JUMPDEST PUSH1 0x60 ADDRESS PUSH20 0xFFFFFFFFFFFFFFFFFFFFFFFFFFFFFFFFFFFFFFFF AND PUSH4 0x3A32B549 PUSH1 0x40 MLOAD DUP2 PUSH4 0xFFFFFFFF AND PUSH1 0xE0 SHL DUP2 MSTORE PUSH1 0x4 ADD PUSH0 PUSH1 0x40 MLOAD DUP1 DUP4 SUB DUP2 DUP7 GAS STATICCALL ISZERO DUP1 ISZERO PUSH2 0x8CB JUMPI RETURNDATASIZE PUSH0 DUP1 RETURNDATACOPY RETURNDATASIZE PUSH0 REVERT JUMPDEST POP POP POP POP PUSH1 0x40 MLOAD RETURNDATASIZE PUSH0 DUP3 RETURNDATACOPY RETURNDATASIZE PUSH1 0x1F NOT PUSH1 0x1F DUP3 ADD AND DUP3 ADD DUP1 PUSH1 0x40 MSTORE POP DUP2 ADD SWAP1 PUSH2 0x8F3 SWAP2 SWAP1 PUSH2 0x1254 JUMP JUMPDEST SWAP1 POP SWAP1 JUMP JUMPDEST PUSH0 DUP1 PUSH0 SWAP1 POP PUSH0 DUP1 SLOAD SWAP1 POP PUSH0 PUSH1 0x1 SWAP1 POP JUMPDEST DUP2 DUP2 GT PUSH2 0x930 JUMPI DUP1 DUP4 PUSH2 0x91B SWAP2 SWAP1 PUSH2 0xE2C JUMP JUMPDEST SWAP3 POP DUP1 DUP1 PUSH2 0x928 SWAP1 PUSH2 0xE5F JUMP JUMPDEST SWAP2 POP POP PUSH2 0x908 JUMP JUMPDEST POP DUP2 SWAP3 POP POP POP SWAP1 JUMP JUMPDEST PUSH1 0x60 PUSH1 0x40 MLOAD DUP1 PUSH1 0x40 ADD PUSH1 0x40 MSTORE DUP1 PUSH1 0x1C DUP2 MSTORE PUSH1 0x20 ADD PUSH32 0x5468697320697320616E20696E7465726E616C2066756E6374696F6E00000000 DUP2 MSTORE POP SWAP1 POP SWAP1 JUMP JUMPDEST PUSH0 DUP2 SWAP1 POP SWAP2 SWAP1 POP JUMP JUMPDEST PUSH2 0x988 DUP2 PUSH2 0x976 JUMP JUMPDEST DUP3 MSTORE POP POP JUMP JUMPDEST PUSH0 PUSH1 0x20 DUP3 ADD SWAP1 POP PUSH2 0x9A1 PUSH0 DUP4 ADD DUP5 PUSH2 0x97F JUMP JUMPDEST SWAP3 SWAP2 POP POP JUMP JUMPDEST PUSH0 DUP2 ISZERO ISZERO SWAP1 POP SWAP2 SWAP1 POP JUMP JUMPDEST PUSH2 0x9BB DUP2 PUSH2 0x9A7 JUMP JUMPDEST DUP3 MSTORE POP POP JUMP JUMPDEST PUSH0 PUSH1 0x20 DUP3 ADD SWAP1 POP PUSH2 0x9D4 PUSH0 DUP4 ADD DUP5 PUSH2 0x9B2 JUMP JUMPDEST SWAP3 SWAP2 POP POP JUMP JUMPDEST PUSH0 PUSH1 0x40 MLOAD SWAP1 POP SWAP1 JUMP JUMPDEST PUSH0 DUP1 REVERT JUMPDEST PUSH0 DUP1 REVERT JUMPDEST PUSH2 0x9F4 DUP2 PUSH2 0x976 JUMP JUMPDEST DUP2 EQ PUSH2 0x9FE JUMPI PUSH0 DUP1 REVERT JUMPDEST POP JUMP JUMPDEST PUSH0 DUP2 CALLDATALOAD SWAP1 POP PUSH2 0xA0F DUP2 PUSH2 0x9EB JUMP JUMPDEST SWAP3 SWAP2 POP POP JUMP JUMPDEST PUSH0 PUSH1 0x20 DUP3 DUP5 SUB SLT ISZERO PUSH2 0xA2A JUMPI PUSH2 0xA29 PUSH2 0x9E3 JUMP JUMPDEST JUMPDEST PUSH0 PUSH2 0xA37 DUP5 DUP3 DUP6 ADD PUSH2 0xA01 JUMP JUMPDEST SWAP2 POP POP SWAP3 SWAP2 POP POP JUMP JUMPDEST PUSH0 DUP1 REVERT JUMPDEST PUSH0 DUP1 REVERT JUMPDEST PUSH0 DUP1 REVERT JUMPDEST PUSH0 DUP1 DUP4 PUSH1 0x1F DUP5 ADD SLT PUSH2 0xA61 JUMPI PUSH2 0xA60 PUSH2 0xA40 JUMP JUMPDEST JUMPDEST DUP3 CALLDATALOAD SWAP1 POP PUSH8 0xFFFFFFFFFFFFFFFF DUP2 GT ISZERO PUSH2 0xA7E JUMPI PUSH2 0xA7D PUSH2 0xA44 JUMP JUMPDEST JUMPDEST PUSH1 0x20 DUP4 ADD SWAP2 POP DUP4 PUSH1 0x1 DUP3 MUL DUP4 ADD GT ISZERO PUSH2 0xA9A JUMPI PUSH2 0xA99 PUSH2 0xA48 JUMP JUMPDEST JUMPDEST SWAP3 POP SWAP3 SWAP1 POP JUMP JUMPDEST PUSH0 DUP1 PUSH1 0x20 DUP4 DUP6 SUB SLT ISZERO PUSH2 0xAB7 JUMPI PUSH2 0xAB6 PUSH2 0x9E3 JUMP JUMPDEST JUMPDEST PUSH0 DUP4 ADD CALLDATALOAD PUSH8 0xFFFFFFFFFFFFFFFF DUP2 GT ISZERO PUSH2 0xAD4 JUMPI PUSH2 0xAD3 PUSH2 0x9E7 JUMP JUMPDEST JUMPDEST PUSH2 0xAE0 DUP6 DUP3 DUP7 ADD PUSH2 0xA4C JUMP JUMPDEST SWAP3 POP SWAP3 POP POP SWAP3 POP SWAP3 SWAP1 POP JUMP JUMPDEST PUSH0 DUP2 MLOAD SWAP1 POP SWAP2 SWAP1 POP JUMP JUMPDEST PUSH0 DUP3 DUP3 MSTORE PUSH1 0x20 DUP3 ADD SWAP1 POP SWAP3 SWAP2 POP POP JUMP JUMPDEST DUP3 DUP2 DUP4 MCOPY PUSH0 DUP4 DUP4 ADD MSTORE POP POP POP JUMP JUMPDEST PUSH0 PUSH1 0x1F NOT PUSH1 0x1F DUP4 ADD AND SWAP1 POP SWAP2 SWAP1 POP JUMP JUMPDEST PUSH0 PUSH2 0xB2E DUP3 PUSH2 0xAEC JUMP JUMPDEST PUSH2 0xB38 DUP2 DUP6 PUSH2 0xAF6 JUMP JUMPDEST SWAP4 POP PUSH2 0xB48 DUP2 DUP6 PUSH1 0x20 DUP7 ADD PUSH2 0xB06 JUMP JUMPDEST PUSH2 0xB51 DUP2 PUSH2 0xB14 JUMP JUMPDEST DUP5 ADD SWAP2 POP POP SWAP3 SWAP2 POP POP JUMP JUMPDEST PUSH0 PUSH1 0x20 DUP3 ADD SWAP1 POP DUP2 DUP2 SUB PUSH0 DUP4 ADD MSTORE PUSH2 0xB74 DUP2 DUP5 PUSH2 0xB24 JUMP JUMPDEST SWAP1 POP SWAP3 SWAP2 POP POP JUMP JUMPDEST PUSH0 DUP1 REVERT JUMPDEST PUSH32 0x4E487B7100000000000000000000000000000000000000000000000000000000 PUSH0 MSTORE PUSH1 0x41 PUSH1 0x4 MSTORE PUSH1 0x24 PUSH0 REVERT JUMPDEST PUSH2 0xBB6 DUP3 PUSH2 0xB14 JUMP JUMPDEST DUP2 ADD DUP2 DUP2 LT PUSH8 0xFFFFFFFFFFFFFFFF DUP3 GT OR ISZERO PUSH2 0xBD5 JUMPI PUSH2 0xBD4 PUSH2 0xB80 JUMP JUMPDEST JUMPDEST DUP1 PUSH1 0x40 MSTORE POP POP POP JUMP JUMPDEST PUSH0 PUSH2 0xBE7 PUSH2 0x9DA JUMP JUMPDEST SWAP1 POP PUSH2 0xBF3 DUP3 DUP3 PUSH2 0xBAD JUMP JUMPDEST SWAP2 SWAP1 POP JUMP JUMPDEST PUSH0 PUSH8 0xFFFFFFFFFFFFFFFF DUP3 GT ISZERO PUSH2 0xC12 JUMPI PUSH2 0xC11 PUSH2 0xB80 JUMP JUMPDEST JUMPDEST PUSH2 0xC1B DUP3 PUSH2 0xB14 JUMP JUMPDEST SWAP1 POP PUSH1 0x20 DUP2 ADD SWAP1 POP SWAP2 SWAP1 POP JUMP JUMPDEST DUP3 DUP2 DUP4 CALLDATACOPY PUSH0 DUP4 DUP4 ADD MSTORE POP POP POP JUMP JUMPDEST PUSH0 PUSH2 0xC48 PUSH2 0xC43 DUP5 PUSH2 0xBF8 JUMP JUMPDEST PUSH2 0xBDE JUMP JUMPDEST SWAP1 POP DUP3 DUP2 MSTORE PUSH1 0x20 DUP2 ADD DUP5 DUP5 DUP5 ADD GT ISZERO PUSH2 0xC64 JUMPI PUSH2 0xC63 PUSH2 0xB7C JUMP JUMPDEST JUMPDEST PUSH2 0xC6F DUP5 DUP3 DUP6 PUSH2 0xC28 JUMP JUMPDEST POP SWAP4 SWAP3 POP POP POP JUMP JUMPDEST PUSH0 DUP3 PUSH1 0x1F DUP4 ADD SLT PUSH2 0xC8B JUMPI PUSH2 0xC8A PUSH2 0xA40 JUMP JUMPDEST JUMPDEST DUP2 CALLDATALOAD PUSH2 0xC9B DUP5 DUP3 PUSH1 0x20 DUP7 ADD PUSH2 0xC36 JUMP JUMPDEST SWAP2 POP POP SWAP3 SWAP2 POP POP JUMP JUMPDEST PUSH0 DUP1 PUSH1 0x40 DUP4 DUP6 SUB SLT ISZERO PUSH2 0xCBA JUMPI PUSH2 0xCB9 PUSH2 0x9E3 JUMP JUMPDEST JUMPDEST PUSH0 DUP4 ADD CALLDATALOAD PUSH8 0xFFFFFFFFFFFFFFFF DUP2 GT ISZERO PUSH2 0xCD7 JUMPI PUSH2 0xCD6 PUSH2 0x9E7 JUMP JUMPDEST JUMPDEST PUSH2 0xCE3 DUP6 DUP3 DUP7 ADD PUSH2 0xC77 JUMP JUMPDEST SWAP3 POP POP PUSH1 0x20 PUSH2 0xCF4 DUP6 DUP3 DUP7 ADD PUSH2 0xA01 JUMP JUMPDEST SWAP2 POP POP SWAP3 POP SWAP3 SWAP1 POP JUMP JUMPDEST PUSH0 PUSH1 0x20 DUP3 DUP5 SUB SLT ISZERO PUSH2 0xD13 JUMPI PUSH2 0xD12 PUSH2 0x9E3 JUMP JUMPDEST JUMPDEST PUSH0 DUP3 ADD CALLDATALOAD PUSH8 0xFFFFFFFFFFFFFFFF DUP2 GT ISZERO PUSH2 0xD30 JUMPI PUSH2 0xD2F PUSH2 0x9E7 JUMP JUMPDEST JUMPDEST PUSH2 0xD3C DUP5 DUP3 DUP6 ADD PUSH2 0xC77 JUMP JUMPDEST SWAP2 POP POP SWAP3 SWAP2 POP POP JUMP JUMPDEST PUSH0 PUSH1 0x40 DUP3 ADD SWAP1 POP DUP2 DUP2 SUB PUSH0 DUP4 ADD MSTORE PUSH2 0xD5D DUP2 DUP6 PUSH2 0xB24 JUMP JUMPDEST SWAP1 POP PUSH2 0xD6C PUSH1 0x20 DUP4 ADD DUP5 PUSH2 0x97F JUMP JUMPDEST SWAP4 SWAP3 POP POP POP JUMP JUMPDEST PUSH32 0x4E487B7100000000000000000000000000000000000000000000000000000000 PUSH0 MSTORE PUSH1 0x21 PUSH1 0x4 MSTORE PUSH1 0x24 PUSH0 REVERT JUMPDEST PUSH1 0x2 DUP2 LT PUSH2 0xDB1 JUMPI PUSH2 0xDB0 PUSH2 0xD73 JUMP JUMPDEST JUMPDEST POP JUMP JUMPDEST PUSH0 DUP2 SWAP1 POP PUSH2 0xDC1 DUP3 PUSH2 0xDA0 JUMP JUMPDEST SWAP2 SWAP1 POP JUMP JUMPDEST PUSH0 PUSH2 0xDD0 DUP3 PUSH2 0xDB4 JUMP JUMPDEST SWAP1 POP SWAP2 SWAP1 POP JUMP JUMPDEST PUSH2 0xDE0 DUP2 PUSH2 0xDC6 JUMP JUMPDEST DUP3 MSTORE POP POP JUMP JUMPDEST PUSH0 PUSH1 0x20 DUP3 ADD SWAP1 POP PUSH2 0xDF9 PUSH0 DUP4 ADD DUP5 PUSH2 0xDD7 JUMP JUMPDEST SWAP3 SWAP2 POP POP JUMP JUMPDEST PUSH32 0x4E487B7100000000000000000000000000000000000000000000000000000000 PUSH0 MSTORE PUSH1 0x11 PUSH1 0x4 MSTORE PUSH1 0x24 PUSH0 REVERT JUMPDEST PUSH0 PUSH2 0xE36 DUP3 PUSH2 0x976 JUMP JUMPDEST SWAP2 POP PUSH2 0xE41 DUP4 PUSH2 0x976 JUMP JUMPDEST SWAP3 POP DUP3 DUP3 ADD SWAP1 POP DUP1 DUP3 GT ISZERO PUSH2 0xE59 JUMPI PUSH2 0xE58 PUSH2 0xDFF JUMP JUMPDEST JUMPDEST SWAP3 SWAP2 POP POP JUMP JUMPDEST PUSH0 PUSH2 0xE69 DUP3 PUSH2 0x976 JUMP JUMPDEST SWAP2 POP PUSH32 0xFFFFFFFFFFFFFFFFFFFFFFFFFFFFFFFFFFFFFFFFFFFFFFFFFFFFFFFFFFFFFFFF DUP3 SUB PUSH2 0xE9B JUMPI PUSH2 0xE9A PUSH2 0xDFF JUMP JUMPDEST JUMPDEST PUSH1 0x1 DUP3 ADD SWAP1 POP SWAP2 SWAP1 POP JUMP JUMPDEST PUSH32 0x4E487B7100000000000000000000000000000000000000000000000000000000 PUSH0 MSTORE PUSH1 0x22 PUSH1 0x4 MSTORE PUSH1 0x24 PUSH0 REVERT JUMPDEST PUSH0 PUSH1 0x2 DUP3 DIV SWAP1 POP PUSH1 0x1 DUP3 AND DUP1 PUSH2 0xEEA JUMPI PUSH1 0x7F DUP3 AND SWAP2 POP JUMPDEST PUSH1 0x20 DUP3 LT DUP2 SUB PUSH2 0xEFD JUMPI PUSH2 0xEFC PUSH2 0xEA6 JUMP JUMPDEST JUMPDEST POP SWAP2 SWAP1 POP JUMP JUMPDEST PUSH0 DUP2 SWAP1 POP DUP2 PUSH0 MSTORE PUSH1 0x20 PUSH0 KECCAK256 SWAP1 POP SWAP2 SWAP1 POP JUMP JUMPDEST PUSH0 PUSH1 0x20 PUSH1 0x1F DUP4 ADD DIV SWAP1 POP SWAP2 SWAP1 POP JUMP JUMPDEST PUSH0 DUP3 DUP3 SHL SWAP1 POP SWAP3 SWAP2 POP POP JUMP JUMPDEST PUSH0 PUSH1 0x8 DUP4 MUL PUSH2 0xF5F PUSH32 0xFFFFFFFFFFFFFFFFFFFFFFFFFFFFFFFFFFFFFFFFFFFFFFFFFFFFFFFFFFFFFFFF DUP3 PUSH2 0xF24 JUMP JUMPDEST PUSH2 0xF69 DUP7 DUP4 PUSH2 0xF24 JUMP JUMPDEST SWAP6 POP DUP1 NOT DUP5 AND SWAP4 POP DUP1 DUP7 AND DUP5 OR SWAP3 POP POP POP SWAP4 SWAP3 POP POP POP JUMP JUMPDEST PUSH0 DUP2 SWAP1 POP SWAP2 SWAP1 POP JUMP JUMPDEST PUSH0 PUSH2 0xFA4 PUSH2 0xF9F PUSH2 0xF9A DUP5 PUSH2 0x976 JUMP JUMPDEST PUSH2 0xF81 JUMP JUMPDEST PUSH2 0x976 JUMP JUMPDEST SWAP1 POP SWAP2 SWAP1 POP JUMP JUMPDEST PUSH0 DUP2 SWAP1 POP SWAP2 SWAP1 POP JUMP JUMPDEST PUSH2 0xFBD DUP4 PUSH2 0xF8A JUMP JUMPDEST PUSH2 0xFD1 PUSH2 0xFC9 DUP3 PUSH2 0xFAB JUMP JUMPDEST DUP5 DUP5 SLOAD PUSH2 0xF30 JUMP JUMPDEST DUP3 SSTORE POP POP POP POP JUMP JUMPDEST PUSH0 SWAP1 JUMP JUMPDEST PUSH2 0xFE5 PUSH2 0xFD9 JUMP JUMPDEST PUSH2 0xFF0 DUP2 DUP5 DUP5 PUSH2 0xFB4 JUMP JUMPDEST POP POP POP JUMP JUMPDEST JUMPDEST DUP2 DUP2 LT ISZERO PUSH2 0x1013 JUMPI PUSH2 0x1008 PUSH0 DUP3 PUSH2 0xFDD JUMP JUMPDEST PUSH1 0x1 DUP2 ADD SWAP1 POP PUSH2 0xFF6 JUMP JUMPDEST POP POP JUMP JUMPDEST PUSH1 0x1F DUP3 GT ISZERO PUSH2 0x1058 JUMPI PUSH2 0x1029 DUP2 PUSH2 0xF03 JUMP JUMPDEST PUSH2 0x1032 DUP5 PUSH2 0xF15 JUMP JUMPDEST DUP2 ADD PUSH1 0x20 DUP6 LT ISZERO PUSH2 0x1041 JUMPI DUP2 SWAP1 POP JUMPDEST PUSH2 0x1055 PUSH2 0x104D DUP6 PUSH2 0xF15 JUMP JUMPDEST DUP4 ADD DUP3 PUSH2 0xFF5 JUMP JUMPDEST POP POP JUMPDEST POP POP POP JUMP JUMPDEST PUSH0 DUP3 DUP3 SHR SWAP1 POP SWAP3 SWAP2 POP POP JUMP JUMPDEST PUSH0 PUSH2 0x1078 PUSH0 NOT DUP5 PUSH1 0x8 MUL PUSH2 0x105D JUMP JUMPDEST NOT DUP1 DUP4 AND SWAP2 POP POP SWAP3 SWAP2 POP POP JUMP JUMPDEST PUSH0 PUSH2 0x1090 DUP4 DUP4 PUSH2 0x1069 JUMP JUMPDEST SWAP2 POP DUP3 PUSH1 0x2 MUL DUP3 OR SWAP1 POP SWAP3 SWAP2 POP POP JUMP JUMPDEST PUSH2 0x10A9 DUP3 PUSH2 0xAEC JUMP JUMPDEST PUSH8 0xFFFFFFFFFFFFFFFF DUP2 GT ISZERO PUSH2 0x10C2 JUMPI PUSH2 0x10C1 PUSH2 0xB80 JUMP JUMPDEST JUMPDEST PUSH2 0x10CC DUP3 SLOAD PUSH2 0xED3 JUMP JUMPDEST PUSH2 0x10D7 DUP3 DUP3 DUP6 PUSH2 0x1017 JUMP JUMPDEST PUSH0 PUSH1 0x20 SWAP1 POP PUSH1 0x1F DUP4 GT PUSH1 0x1 DUP2 EQ PUSH2 0x1108 JUMPI PUSH0 DUP5 ISZERO PUSH2 0x10F6 JUMPI DUP3 DUP8 ADD MLOAD SWAP1 POP JUMPDEST PUSH2 0x1100 DUP6 DUP3 PUSH2 0x1085 JUMP JUMPDEST DUP7 SSTORE POP PUSH2 0x1167 JUMP JUMPDEST PUSH1 0x1F NOT DUP5 AND PUSH2 0x1116 DUP7 PUSH2 0xF03 JUMP JUMPDEST PUSH0 JUMPDEST DUP3 DUP2 LT ISZERO PUSH2 0x113D JUMPI DUP5 DUP10 ADD MLOAD DUP3 SSTORE PUSH1 0x1 DUP3 ADD SWAP2 POP PUSH1 0x20 DUP6 ADD SWAP5 POP PUSH1 0x20 DUP2 ADD SWAP1 POP PUSH2 0x1118 JUMP JUMPDEST DUP7 DUP4 LT ISZERO PUSH2 0x115A JUMPI DUP5 DUP10 ADD MLOAD PUSH2 0x1156 PUSH1 0x1F DUP10 AND DUP3 PUSH2 0x1069 JUMP JUMPDEST DUP4 SSTORE POP JUMPDEST PUSH1 0x1 PUSH1 0x2 DUP9 MUL ADD DUP9 SSTORE POP POP POP JUMPDEST POP POP POP POP POP POP JUMP JUMPDEST PUSH0 DUP2 SWAP1 POP SWAP3 SWAP2 POP POP JUMP JUMPDEST PUSH0 PUSH2 0x1183 DUP3 PUSH2 0xAEC JUMP JUMPDEST PUSH2 0x118D DUP2 DUP6 PUSH2 0x116F JUMP JUMPDEST SWAP4 POP PUSH2 0x119D DUP2 DUP6 PUSH1 0x20 DUP7 ADD PUSH2 0xB06 JUMP JUMPDEST DUP1 DUP5 ADD SWAP2 POP POP SWAP3 SWAP2 POP POP JUMP JUMPDEST PUSH0 PUSH2 0x11B4 DUP3 DUP5 PUSH2 0x1179 JUMP JUMPDEST SWAP2 POP DUP2 SWAP1 POP SWAP3 SWAP2 POP POP JUMP JUMPDEST PUSH0 PUSH1 0x40 DUP3 ADD SWAP1 POP PUSH2 0x11D2 PUSH0 DUP4 ADD DUP6 PUSH2 0x97F JUMP JUMPDEST PUSH2 0x11DF PUSH1 0x20 DUP4 ADD DUP5 PUSH2 0x97F JUMP JUMPDEST SWAP4 SWAP3 POP POP POP JUMP JUMPDEST PUSH0 PUSH2 0x11F8 PUSH2 0x11F3 DUP5 PUSH2 0xBF8 JUMP JUMPDEST PUSH2 0xBDE JUMP JUMPDEST SWAP1 POP DUP3 DUP2 MSTORE PUSH1 0x20 DUP2 ADD DUP5 DUP5 DUP5 ADD GT ISZERO PUSH2 0x1214 JUMPI PUSH2 0x1213 PUSH2 0xB7C JUMP JUMPDEST JUMPDEST PUSH2 0x121F DUP5 DUP3 DUP6 PUSH2 0xB06 JUMP JUMPDEST POP SWAP4 SWAP3 POP POP POP JUMP JUMPDEST PUSH0 DUP3 PUSH1 0x1F DUP4 ADD SLT PUSH2 0x123B JUMPI PUSH2 0x123A PUSH2 0xA40 JUMP JUMPDEST JUMPDEST DUP2 MLOAD PUSH2 0x124B DUP5 DUP3 PUSH1 0x20 DUP7 ADD PUSH2 0x11E6 JUMP JUMPDEST SWAP2 POP POP SWAP3 SWAP2 POP POP JUMP JUMPDEST PUSH0 PUSH1 0x20 DUP3 DUP5 SUB SLT ISZERO PUSH2 0x1269 JUMPI PUSH2 0x1268 PUSH2 0x9E3 JUMP JUMPDEST JUMPDEST PUSH0 DUP3 ADD MLOAD PUSH8 0xFFFFFFFFFFFFFFFF DUP2 GT ISZERO PUSH2 0x1286 JUMPI PUSH2 0x1285 PUSH2 0x9E7 JUMP JUMPDEST JUMPDEST PUSH2 0x1292 DUP5 DUP3 DUP6 ADD PUSH2 0x1227 JUMP JUMPDEST SWAP2 POP POP SWAP3 SWAP2 POP POP JUMP INVALID LOG2 PUSH5 0x6970667358 0x22 SLT KECCAK256 PUSH19 0xCD7BC893AB4ECDBD3EEA8A6DDC117779DB7647 0xE8 0x22 PUSH31 0xD182C6110493B62CEB64736F6C634300081A00330000000000000000000000 "
		},
		"gasEstimates": {
			"creation": {
				"codeDepositCost": "963400",
				"executionCost": "999",
				"totalCost": "964399"
			},
			"external": {
				"activateContract()": "27868",
				"addFavoriteNumber(uint256)": "infinite",
				"addPerson(string,uint256)": "infinite",
				"calculateWithMemory()": "infinite",
				"callInternalFunction()": "infinite",
				"deactivateContract()": "27868",
				"externalFunction()": "infinite",
				"favoriteNumbers(uint256)": "infinite",
				"getFavoriteNumber()": "2499",
				"getFavoriteNumbersLength()": "2507",
				"getPeopleLength()": "2464",
				"isActive()": "2599",
				"isGreaterThan(uint256)": "2770",
				"nameToFavoriteNumber(string)": "infinite",
				"people(uint256)": "infinite",
				"processCalldata(string)": "infinite",
				"state()": "2598",
				"storeNumber(uint256)": "infinite",
				"sumToFavoriteNumber()": "infinite",
				"testExternalFunction()": "infinite"
			},
			"internal": {
				"internalFunction()": "infinite"
			}
		},
		"methodIdentifiers": {
			"activateContract()": "8fda356d",
			"addFavoriteNumber(uint256)": "a7e1a364",
			"addPerson(string,uint256)": "6f760f41",
			"calculateWithMemory()": "ef3763d7",
			"callInternalFunction()": "8701f8ca",
			"deactivateContract()": "bca353be",
			"externalFunction()": "3a32b549",
			"favoriteNumbers(uint256)": "29cd1d96",
			"getFavoriteNumber()": "a621d15e",
			"getFavoriteNumbersLength()": "7b2f685d",
			"getPeopleLength()": "0c8c38c9",
			"isActive()": "22f3e2d4",
			"isGreaterThan(uint256)": "cb6a33f8",
			"nameToFavoriteNumber(string)": "8bab8dd5",
			"people(uint256)": "9e7a13ad",
			"processCalldata(string)": "36428c45",
			"state()": "c19d93fb",
			"storeNumber(uint256)": "b6339418",
			"sumToFavoriteNumber()": "0cd2636e",
			"testExternalFunction()": "e0819c9a"
		}
	},
	"abi": [
		{
			"anonymous": false,
			"inputs": [
				{
					"indexed": false,
					"internalType": "enum SimpleStorage.ContractState",
					"name": "newState",
					"type": "uint8"
				}
			],
			"name": "ContractStateChanged",
			"type": "event"
		},
		{
			"anonymous": false,
			"inputs": [
				{
					"indexed": false,
					"internalType": "uint256",
					"name": "number",
					"type": "uint256"
				}
			],
			"name": "FavoriteNumberAdded",
			"type": "event"
		},
		{
			"anonymous": false,
			"inputs": [
				{
					"indexed": false,
					"internalType": "uint256",
					"name": "number",
					"type": "uint256"
				}
			],
			"name": "NumberStored",
			"type": "event"
		},
		{
			"anonymous": false,
			"inputs": [
				{
					"indexed": false,
					"internalType": "uint256",
					"name": "oldNumber",
					"type": "uint256"
				},
				{
					"indexed": false,
					"internalType": "uint256",
					"name": "newNumber",
					"type": "uint256"
				}
			],
			"name": "NumberUpdated",
			"type": "event"
		},
		{
			"anonymous": false,
			"inputs": [
				{
					"indexed": false,
					"internalType": "string",
					"name": "name",
					"type": "string"
				},
				{
					"indexed": false,
					"internalType": "uint256",
					"name": "favoriteNumber",
					"type": "uint256"
				}
			],
			"name": "PersonAdded",
			"type": "event"
		},
		{
			"inputs": [],
			"name": "activateContract",
			"outputs": [],
			"stateMutability": "nonpayable",
			"type": "function"
		},
		{
			"inputs": [
				{
					"internalType": "uint256",
					"name": "_number",
					"type": "uint256"
				}
			],
			"name": "addFavoriteNumber",
			"outputs": [],
			"stateMutability": "nonpayable",
			"type": "function"
		},
		{
			"inputs": [
				{
					"internalType": "string",
					"name": "_name",
					"type": "string"
				},
				{
					"internalType": "uint256",
					"name": "_favoriteNumber",
					"type": "uint256"
				}
			],
			"name": "addPerson",
			"outputs": [],
			"stateMutability": "nonpayable",
			"type": "function"
		},
		{
			"inputs": [],
			"name": "calculateWithMemory",
			"outputs": [
				{
					"internalType": "uint256",
					"name": "",
					"type": "uint256"
				}
			],
			"stateMutability": "view",
			"type": "function"
		},
		{
			"inputs": [],
			"name": "callInternalFunction",
			"outputs": [
				{
					"internalType": "string",
					"name": "",
					"type": "string"
				}
			],
			"stateMutability": "pure",
			"type": "function"
		},
		{
			"inputs": [],
			"name": "deactivateContract",
			"outputs": [],
			"stateMutability": "nonpayable",
			"type": "function"
		},
		{
			"inputs": [],
			"name": "externalFunction",
			"outputs": [
				{
					"internalType": "string",
					"name": "",
					"type": "string"
				}
			],
			"stateMutability": "pure",
			"type": "function"
		},
		{
			"inputs": [
				{
					"internalType": "uint256",
					"name": "",
					"type": "uint256"
				}
			],
			"name": "favoriteNumbers",
			"outputs": [
				{
					"internalType": "uint256",
					"name": "",
					"type": "uint256"
				}
			],
			"stateMutability": "view",
			"type": "function"
		},
		{
			"inputs": [],
			"name": "getFavoriteNumber",
			"outputs": [
				{
					"internalType": "uint256",
					"name": "",
					"type": "uint256"
				}
			],
			"stateMutability": "view",
			"type": "function"
		},
		{
			"inputs": [],
			"name": "getFavoriteNumbersLength",
			"outputs": [
				{
					"internalType": "uint256",
					"name": "",
					"type": "uint256"
				}
			],
			"stateMutability": "view",
			"type": "function"
		},
		{
			"inputs": [],
			"name": "getPeopleLength",
			"outputs": [
				{
					"internalType": "uint256",
					"name": "",
					"type": "uint256"
				}
			],
			"stateMutability": "view",
			"type": "function"
		},
		{
			"inputs": [],
			"name": "isActive",
			"outputs": [
				{
					"internalType": "bool",
					"name": "",
					"type": "bool"
				}
			],
			"stateMutability": "view",
			"type": "function"
		},
		{
			"inputs": [
				{
					"internalType": "uint256",
					"name": "_number",
					"type": "uint256"
				}
			],
			"name": "isGreaterThan",
			"outputs": [
				{
					"internalType": "bool",
					"name": "",
					"type": "bool"
				}
			],
			"stateMutability": "view",
			"type": "function"
		},
		{
			"inputs": [
				{
					"internalType": "string",
					"name": "",
					"type": "string"
				}
			],
			"name": "nameToFavoriteNumber",
			"outputs": [
				{
					"internalType": "uint256",
					"name": "",
					"type": "uint256"
				}
			],
			"stateMutability": "view",
			"type": "function"
		},
		{
			"inputs": [
				{
					"internalType": "uint256",
					"name": "",
					"type": "uint256"
				}
			],
			"name": "people",
			"outputs": [
				{
					"internalType": "string",
					"name": "name",
					"type": "string"
				},
				{
					"internalType": "uint256",
					"name": "favoriteNumber",
					"type": "uint256"
				}
			],
			"stateMutability": "view",
			"type": "function"
		},
		{
			"inputs": [
				{
					"internalType": "string",
					"name": "_input",
					"type": "string"
				}
			],
			"name": "processCalldata",
			"outputs": [
				{
					"internalType": "string",
					"name": "",
					"type": "string"
				}
			],
			"stateMutability": "pure",
			"type": "function"
		},
		{
			"inputs": [],
			"name": "state",
			"outputs": [
				{
					"internalType": "enum SimpleStorage.ContractState",
					"name": "",
					"type": "uint8"
				}
			],
			"stateMutability": "view",
			"type": "function"
		},
		{
			"inputs": [
				{
					"internalType": "uint256",
					"name": "_number",
					"type": "uint256"
				}
			],
			"name": "storeNumber",
			"outputs": [],
			"stateMutability": "nonpayable",
			"type": "function"
		},
		{
			"inputs": [],
			"name": "sumToFavoriteNumber",
			"outputs": [
				{
					"internalType": "uint256",
					"name": "",
					"type": "uint256"
				}
			],
			"stateMutability": "view",
			"type": "function"
		},
		{
			"inputs": [],
			"name": "testExternalFunction",
			"outputs": [
				{
					"internalType": "string",
					"name": "",
					"type": "string"
				}
			],
			"stateMutability": "view",
			"type": "function"
		}
	]
}